:020000022000DC
:1060000020610320B5620200DD620200DF6202004F
:10601000E1620200E3620200E562020000000000AB
:10602000000000000000000000000000E762020025
:10603000E962020000000000EB620200ED62020073
:106040004D810200EF620200058602001DD10200B0
:106050002DD10200EF62020059840200EF620200BB
:10606000EF620200EF620200EF620200EF620200E4
:10607000EF620200EF620200EF620200EF620200D4
:10608000EF62020025700200EF620200EF62020080
:10609000C1700200EF62020071C30200EF620200F1
:1060A000EF620200EF620200EF620200EF620200A4
:1060B000EF620200EF62020000000000000000003A
:1060C000EF620200EF620200EF620200EF62020084
:1060D000FD8D0200EF620200EF620200EF6202003B
:1060E000EF620200EF620200EF62020000000000B7
:1060F00000000000EF62020000000000EF620200FA
:10610000000000000000000000000000000000008F
:10611000000000000000000000000000000000007F
:10612000000000000000000000000000000000006F
:10613000000000000000000000000000000000005F
:10614000000000000000000000000000000000004F
:10615000000000000000000000000000000000003F
:10616000000000000000000000000000000000002F
:10617000000000000000000000000000000000001F
:10618000000000000000000000000000000000000F
:1061900000000000000000000000000000000000FF
:1061A00000000000000000000000000000000000EF
:1061B00000000000000000000000000000000000DF
:1061C00000000000000000000000000000000000CF
:1061D00000000000000000000000000000000000BF
:1061E00000000000000000000000000000000000AF
:1061F000000000000000000000000000000000009F
:1062000010B5054C237833B9044B13B10448AFF3F0
:1062100000800123237010BD004100200000000019
:106220009C25030008B5034B1BB103490348AFF39A
:10623000008008BD00000000044100209C250300F0
:10624000154B002B08BF134B9D46A3F5803A002148
:106250008B460F461348144A121A07F0F9F90F4BF0
:10626000002B00D098470E4B002B00D09847002001
:10627000002104000D000D48002802D00C48AFF3A7
:10628000008007F09FF82000290002F097FC07F03B
:1062900085F800BF00000800206103200000000016
:1062A0000000000000410020F05400200000000029
:1062B000000000000649074A074B9B1A03DD043B18
:1062C000C858D050FBDC01F0EFFCFFF7B9FF00002D
:1062D000D4260300B83B002000410020FEE7FEE783
:1062E000FEE7FEE7FEE7FEE7FEE7FEE7FEE7FEE786
:1062F0007047000007B5044B0093044A402300F0A8
:1063000032F803B05DF804FB116302001D41002068
:106310002DE9F84389461446B2B10F4B0F4E0325C1
:10632000002743F00108224609EB0701002004F092
:1063300001F90744241A48B933782BB14FF47A4055
:10634000C047013D02D13570BDE8F88301233370A9
:10635000002CE8D1F8E700BF700E03001C410020BC
:10636000704704F01BB9F0B595B01C4616460846B8
:106370000D4601F0D8FB1A9B0D93CDE9086400246B
:106380002346082205A928460A948DF82C400C942F
:1063900001F0E6FB079B0293069B03939DF81430E4
:1063A0008DF8114003F00302012A1DD1BDF81440FD
:1063B000059EC3F3C203C4F383148DF81030A2000A
:1063C00008230EA9284601F0CBFBC6F3952608AB9F
:1063D0000093224602AB0EA9304600F07FFB284610
:1063E00001F0A5FB15B0F0BD022AF8D1BDF81640AA
:1063F000C3F3C203A4098DF810300827082C2646E1
:1064000028BF08263B4632460EA9284601F0A8FBC5
:10641000A41B08AB02AA31460EA8374400F0C2FB09
:10642000002CEBD1DBE7000008B5FFF79AFF042151
:10643000034800F0B9FA034B01225A7108BD00BFAE
:10644000BC260300B83B0020037813F0040216D0EA
:1064500003F00303012B03D0022B09D00120704766
:106460000A6800880232C0F3831002440A60F5E72C
:106470000B684288023303EB92130B60EEE7104681
:10648000704700002DE9F04F87B000230446851CBB
:106490000DF107000F4690468DF8073001F004F823
:1064A000454806683E60D0E90132134401339B1B26
:1064B000824600F21C4600F5836900F21447AB42A5
:1064C0001BD30022B8F1000F70D0052363F307023D
:1064D00064F38912DAF80010DAF808309DF8070042
:1064E0000B4003330D444AF82320CAF8005000F053
:1064F000FFFF012007B0BDE8F08F0121304601F019
:1065000054F8484601F067F8384601F064F8DAF8C4
:106510000400DAF808B0029000EA0B0003300AEB3E
:10652000800002A9FFF790FF029B50BB0BEA030219
:106530000AEB820203F1020CD2680392013303EAF0
:106540000B0B0AEB8B0B02F00302012ACDF808C0FB
:10655000DBF80C1022D0022A16D08346384601F010
:106560003DF810B1029BCAF804305946304601F09C
:106570001CF8DAE901231344DAF8002001339B1AEE
:106580009DE70BEA0300C9E7BDF80E309B09033312
:106590004FEA114B0CEB93030293DFE7BDF80C308D
:1065A000C3F383134FEA114B6344F5E7062363F308
:1065B000070264F39F528DE7304200200B4B0C48DA
:1065C000FF2210B59A600022C3F81824C3E9002204
:1065D000C3F81424012283F8202401F05DFA044654
:1065E00010B9044801F004FB204610BD30420020E1
:1065F00018260300940E030030B50A4C71B10A4A04
:106600000A49121BD20800239A4201D1002030BD52
:1066100031F82350854202D00133F5E7034654F8A0
:106620003300F4E72C260300BC26030000410020C1
:10663000094B013903EBC000032909D8DFE801F059
:106640000A020406042070470079704740797047B9
:1066500000207047022070472C260300034BD3E92B
:106660000030C31A58425841704700BF30420020E2
:106670002DE9F04387B0FFF7F1FF0646002840F010
:10668000FB807E4DC5F81804BFF34F8F6868AC6877
:1066900002902040033005EB800002A9FFF7D4FEF2
:1066A000029B18B1D5F81824002A5FD004EA03022F
:1066B000991C013305EB8202234005EB8303D2686A
:1066C000DB68049302F00303022B0392029162D170
:1066D000BDF80E306A484FEA9318B8F1500FC14622
:1066E00028BF4FF0500969F38F1309F10801ADF885
:1066F0000E3001F0E9F90746002800F0A88001F00B
:1067000012FA03A900230822384601F01FFA029961
:1067100024EA01060136B600B14535D95FFA89F998
:106720007EB3F6B2A9EB0609214003315FFA89F482
:10673000B146544E05EB810108234A46384601F024
:1067400005FA36B109F1080322463146384601F010
:10675000FDF9029B08F1030803EB98030293D5F8B7
:106760001834002B4BD1D5F810445BE02A689A42CC
:1067700004D86A60304607B0BDE8F08304EA03003D
:1067800088E740493446D7E72140033108234A4689
:1067900005EB8101DAE7012B59D1BDF80C303848FF
:1067A000C3F38311062928BF062161F3891302313F
:1067B0008900ADF80C3001F087F90746002846D073
:1067C00001F0B1F90023082203A9384601F0BEF90F
:1067D0000026BDF80C20C2F38312B300964203F1E9
:1067E0000803BCD202994A1C21400331029205EBF6
:1067F00081010422384601F0A9F90136E9E738465B
:1068000001F095F9FFF72AFF80F00100C6B2B1E769
:10681000E3685B7923B1236839461B6820469847B3
:10682000E3681C68002CF3D1384601F080F90DF1C3
:1068300007008DF8074000F037FED5F818340BB983
:10684000029B6B609DF8070000F052FEDAE7D5F876
:10685000104454B90C4B0D480D49C01AC00800042F
:1068600040F0020000F06EF8CCE7236820469B68F9
:106870009847E3681C68ECE700267BE7304200207D
:10688000182603003C4200202C2603005C2603004F
:10689000A00E03002DE9F74F284C80460F46924684
:1068A00001A9012218469B46D4F80890FFF7EAFD9B
:1068B00080B3019D0026A91C5E4506EB010233D181
:1068C00000211F4800F046FE80F310006A1C02EA17
:1068D000090204EB8202000405EA0903033340EADB
:1068E0001840D06014F8232068F3C50204F8232070
:1068F00034F8232066F3891224F8232054F8232047
:1069000067F39F2244F8232002F0F80242F00102CC
:1069100004F8232094F820341BB1FFF7A9FE0028C7
:10692000FBD103B0BDE8F08F09EA020204EB82025A
:106930005AF82630D3600136BEE700BF304200204F
:106940004C46002000231A46FFF7A4BF07B50123D9
:10695000019201AAFFF79EFF03B05DF804FB07B5A3
:10696000CDE9002302236A46FFF794FF03B05DF8E8
:1069700004FB1FB5CDE90123069B039301AA032362
:10698000FFF788FF05B05DF804FB1FB5CDE90023D4
:10699000069B0293079B03936A460423FFF77AFF43
:1069A00005B05DF804FB000030B5134AD2F810447E
:1069B0000023214651B9C4682371D2F810445CB950
:1069C000C2F81004C2681160184630BDC9680D795C
:1069D0009D420AD00968EDE7E468C16824680C604C
:1069E000D2F81024D2681060EEE701330A2BE0D110
:1069F0004FF0FF33E8E700BF3042002038B5094AC6
:106A00000123D2F8104482F820341D4604B938BD61
:106A1000E3685D71236820465B689847E3681C68FB
:106A2000F4E700BF3042002010B5037A052B0C4676
:106A30000FD0437A23B1084A0849204600F033FEBC
:106A40000749204600F02FFE2046BDE8104000F028
:106A50001FBE002AF8D0F3E7EB0E03009A170300DD
:106A60005B15030073B5C38804460D4633B1144A61
:106A700000921449144A284600F015FE217A05298F
:106A80001CD0637A4BB1A088FFF7D2FD0F4B1049A1
:106A900053F82020284600F006FE227A0D4BA088ED
:106AA00053F822600021FFF7A7FD0B490346324649
:106AB000284602B0BDE8704000F0F5BD02B070BDE0
:106AC000EB0E0300F80E0300F00E0300B80E0300F7
:106AD0009A1703001C0F0300100F03002DE9F04369
:106AE00085B01F460C9D002306460C46904695F83F
:106AF0000C902B7329463846FFF7B4FFB8F1060F08
:106B000009D8DFE808F00412181F28334000314686
:106B1000284600F0C8FD002229463846FFF784FFCA
:106B200085F80C9005B0BDE8F08322683146284610
:106B300000F0B9FDEFE7D4E900233146284600F024
:106B4000B2FDE8E7A36800933146D4E90023284664
:106B500000F0A9FDDFE7E3680193A36800933146E5
:106B6000D4E90023284600F09EFDD4E72369029370
:106B7000E3680193A36800933146D4E900232846D3
:106B800000F091FDC7E76369039323690293E3680B
:106B90000193A36800933146D4E90023284600F00E
:106BA00082FDB8E708292DE9F84F80460E461746C2
:106BB0001C463BD8002593F80C901D7319461046CF
:106BC000FFF750FFDFF88CA0DFF88CB0AE422FD972
:106BD00018F805205946204600F065FD0135082DBE
:106BE000F4D11949194DDFF874B0204600F05BFD6F
:106BF0004FF0000A564522D918F80A207E2A1CD8E0
:106C000012F80B1011F0970F08BF2E2210492046E2
:106C100000F049FD0AF1010ABAF1080FEAD1012298
:106C200021463846FFF700FF84F80C90BDE8F88F46
:106C30005146204600F037FDD0E72E22E6E72946F0
:106C4000204600F030FDE5E7E60E0300E40E030009
:106C5000E80E0300E20E0300DC0E0300ED2003004B
:106C60002DE9F04F394E87B04FF00009384B1B78B3
:106C70005FFA89F5AB4202D807B0BDE8F08F354B1B
:106C8000D3F800A01AF835000124D6E9001EA0F1BF
:106C90002002C0F1200304FA02F224FA03F31343A2
:106CA00004FA00FC009301EA0C030293009B0EEA35
:106CB00003030393DDE9022313430AEBC50B41D021
:106CC000009B21EA0C012EEA0303C6E9001301F040
:106CD000B5FB1AF835502049A5F12002C5F1200373
:106CE00004FA02F224FA03F31343D1E900C2AC40E0
:106CF000134004EA0C0105930024C3B2CDE900342B
:106D0000009A0491C5F12003A5F1200122FA03F3B2
:106D100002FA01F848EA03081346AB401F46DDE9D2
:106D20000434444508BFBB420CD1DBF804304BB1FE
:106D30009BF801104A1E51425141081A41424141FB
:106D40002846984709F1010990E700BF2047002035
:106D5000EC46002028470020184700202DE9F0418C
:106D60008046204800F090FBD0BB0125A8F120040C
:106D7000C8F1200325FA03F305FA04F41C431A4B67
:106D8000D3E9001205FA08F501EA050602EA04074C
:106D900056EA07001E461DD1404601F04FFB134B3B
:106DA000D3E9001288B129432243C3E90012D6E98E
:106DB000002315431C43C6E900540D4B09481968CC
:106DC0000022BDE8F04100F019BB21EA050122EAEA
:106DD0000402EAE721EA050522EA0404C3E90054B3
:106DE000BDE8F081F446002020470020184700202D
:106DF000F0460020042A2DE9F34105460C461646CC
:106E00003AD901F04BFAD8B11C4B1D491D601D4BFE
:106E1000DFF884801C701C4B00221E600023C1E937
:106E200000231A49C1E90023013CE4B200260327EC
:106E3000FF2C0CD1164A1748002100F0CDFA03E0D0
:106E400001F0F4F90028DFD002B0BDE8F08123B2F0
:106E500005EBC30201A992788DF8052015F83300DF
:106E60008DF8066042468DF8047001F021FA013C6D
:106E7000E4B20028DCD0E7E70720E5E72847002058
:106E800018470020EC460020F04600202047002054
:106E9000616C02007C0F03005D6D020070B5084D4F
:106EA000084E00242B789C4201D3002070BD33682B
:106EB000012113F8340001F077FA0134F2E700BF42
:106EC000EC460020284700201FB50021039001AAAE
:106ED00044F20100CDE9011100F004F805B05DF8BD
:106EE00004FB000010B572B6FFF788FDFFF7C0FB8A
:106EF0000028FBD1104B114C1149E41AE40824047A
:106F000044F00100FFF71EFD0E4B1B68DB0700D5A8
:106F100000BE0D4944F00200FFF714FDBFF34F8F90
:106F20000A490B4BCA6802F4E0621343CB60BFF31B
:106F30004F8F00BFFDE700BF2C2603005C26030037
:106F4000800F0300F0ED00E08C0F030000ED00E087
:106F50000400FA05094A537891780133DBB299426B
:106F600008BF0023117899421FBF0370507818237F
:106F700003FB002014BF0430002070472C47002082
:106F800073B5054600240DF107000E468DF8074045
:106F900000F08AFA0DF10600FFF7DCFF90B10670F1
:106FA000094B9DF8062045605A709DF8070000F0D7
:106FB0009FFA24B9054B4FF48012C3F800212046F4
:106FC00002B070BD0424F0E72C47002000E100E08F
:106FD000024B4FF43C6043F001031847A00F03003D
:106FE00038B50C4B0C4C4FF40032C3F8802001250F
:106FF0004FF48033C4F84833C4F808336560FFF7B2
:10700000E7FF064BA56000241C60FFF7E1FF044B7F
:107010001C7038BD00E100E000100140484800202D
:1070200039480020F8B51F491F4B0025C1F84051D1
:10703000C1F84451C1F84851C1F84C51C1F8005150
:10704000C1F804511B684BB3D1F8044517490968CE
:10705000641A24F07F442F461A68A24209D8A41A61
:1070600015441A7CDE691AB11F74D3E905209047D4
:10707000AEB90F4A0F4B11781B788B4205D1013303
:10708000DBB2022B08BF0023137012780A4B43F8BF
:1070900022500A4B4FF48012C3F80021F8BD33464A
:1070A000DAE700BF001001404C48002048480020AB
:1070B00045480020444800203C48002000E100E012
:1070C0002DE9F04FA14AA24913780978A14D9942C0
:1070D00085B03CD00133DBB2022B08BF0023137014
:1070E0009D4912789D4B0F6853F822003B1823F0FE
:1070F0007F4300220B602B6816461446944613B952
:1071000042B12B6006E0196881420ED902B12B60B2
:10711000091A196001272B68DFF848A201934FF084
:107120000008BEB9DFF844B266E0401A0C44D968E2
:10713000C3F800C0D3F81CE031B13A1922F07F4205
:10714000C3E90121DE611E4601227346D7E700260E
:107150003746E0E73446F6697F4A63681268DFF82D
:1071600010C2A068991A21F07F41614500F2A68003
:1071700001442160012222742A680023C4E90133FA
:10718000E361002A40F0A3802C60CAE75A1C9BF8F8
:107190000210D2B291428BF8002004BF00228BF87B
:1071A0000020182202FB03B31A799C68022A1CD023
:1071B000032A12D0012A1FD1207CE8B9D968616066
:1071C0001A69A2605A69E2609B69A361644B1B78EB
:1071D000002B18BF01466160BEE700222B681146F4
:1071E000002B67D142B12B6006E029680A46894628
:1071F000002A5AD1002323749BF800309BF8012009
:107200009A42C3D12B68B8F1000F04D1019A9A4277
:1072100001D1002F43D0002B73D0D3F800A0514DE3
:107220004D4BD5F804751C68DFF848813E1B98F873
:10723000003026F07F4603369BB94FF48033C5F803
:107240004433C5F80433484B4FF400324FF0010982
:10725000C3F880211A60C5F80090FFF7B9FE88F8DE
:107260000090B2452CBF5444A41924F07F44C5F8C3
:107270004045D5F80435DB1B23F07F43E41B033383
:1072800024F07F44A3420AD9D5F80435C5F8403527
:10729000FFF79EFE344B4FF40032C3F80021304B11
:1072A00000221A7005B0BDE8F08F94422CD09146B0
:1072B000D2699DE719740122DB6991E7D31A23F0A3
:1072C0007F43834234BFC31A0023236052E72168FF
:1072D0001368994213D8591A1160E26154E7091AE8
:1072E000D8691A4638B1034618688842F7D3401A5D
:1072F0001860184613462160E061DC6111E713460F
:10730000F2E7FFF76DFECAE74C4511D1CB692B6060
:1073100073B9DFF844E00120CDE90212CAF8080091
:10732000CEF800300E4B1870FFF752FEDDE9021266
:107330001368D269C9F81C2012B1106803441360A5
:107340002B68994218BF4FF0010853E744480020CA
:10735000454800204C480020484800203C48002078
:10736000384800200010014000E100E02C470020D8
:10737000FEFF7F003948002008B5FFF731FE104BB3
:1073800000200B2218809A700E4B18600E4B18705C
:107390000E4B18700E4B4FF48012C021C3F88021A1
:1073A00083F814131A6002F18042A2F56F22C2F82A
:1073B000080583F81113074BD2F804251A6008BD9D
:1073C0002C4700204C48002044480020454800201D
:1073D00000E100E048480020074B9B784BB132B1F8
:1073E00028B10368187C20B959745A617047072086
:1073F00070470820704700BF2C4700202DE9F74355
:107400001E4FBB7805460E469046A3B398B3042999
:107410002FD943697BB3437C0024012B0DF1070076
:107420000CBF8946A1468DF8074000F03DF80DF1EC
:107430000600FFF78FFDD0B101230370104B4560AC
:10744000D3F80435C0E90498C0E902369DF8063047
:107450007B709DF8070000F04BF824B9094B4FF4FE
:107460008012C3F80021204603B0BDE8F083042455
:10747000EFE70724F7E70824F5E700BF2C470020D3
:107480000010014000E100E0064A92783AB130B1C4
:10749000426922B1002202740221FFF771BD082067
:1074A000704700BF2C47002070B5EFF3108672B60E
:1074B0000C4A946801239CB993600B4B0B4DD3F895
:1074C000801029401160C3F88050D3F884105160B7
:1074D0004FF0FF32C3F88420047006B962B670BD65
:1074E0000370FAE7C453002000E100E0FC06FFBD92
:1074F00010B5084B9A685AB150B9EFF3108172B6C3
:10750000054A1C6814605C685460986001B962B6F2
:1075100010BD00BFC453002000E100E001F01F02D5
:107520004B090121914000EB830000F01DB801F0F0
:107530001F0301229A404B0900EB8300D14300F066
:1075400029B84B0901F01F0150F82300C84000F092
:107550000100704750E8002F0B4640E8003C9CF0CB
:10756000000FF7D11046704750E8003F43EA010290
:1075700040E8002C9CF0000FF6D11046704750E810
:10758000002F02EA010340E8003C9CF0000FF6D116
:107590001046704750E8003F03EA010240E8002C23
:1075A0009CF0000FF6D11046704750E8003F03EB07
:1075B000010240E8002C9CF0000FF6D11046704705
:1075C00050E8003FA3EB010240E8002C9CF0000FC4
:1075D000F6D1104670470121FFF7C6BF0021FFF723
:1075E000CEBF10B590B1D0E9012301689B1ADBB280
:1075F0000A60013BDBB2FF2B026802D10020107150
:1076000010BD11684C1C14600B70F2E70E20F7E7F8
:1076100037B5054600240DF107008DF80740FFF748
:1076200043FF2A68696813688B4210D9591E11609C
:1076300013F8014C2A8AEB6802FB04342A68AB6811
:1076400011685B1A1179DBB2994238BF13719DF84A
:107650000700FFF74DFF204603B030BD37B50546A4
:1076600000230DF107000C468DF80730FFF71CFFD3
:107670002A681368591C1160E968641A298AB4FBE6
:10768000F1F41C709DF80700FFF732FF03B030BD26
:1076900010B5826804462AB14369016800699847B9
:1076A0000023A36010BD0EB403B5039921B104AB50
:1076B00001AA019300F074F802B05DF804EB03B086
:1076C00070470A2938B504460D4602D10D21FFF74F
:1076D000F8FFA3682268591CA160D554D4E901328F
:1076E0009A4204D32046BDE83840FFF7D1BF38BDE9
:1076F0002DE9F84F9946DDE90A4317468246884648
:107700000A460126BA420FD24E4538BF4E4613F004
:10771000010B01D164B900240125B9F1010F1AD977
:1077200009F1FF397D43F8E7B2FBF7F20136E9E7EB
:107730009B070ED5B9F1000F0CBF30252025A642BE
:10774000EAD2013C29465046FFF7BBFF002CF6D198
:10775000E1E72025F3E7B8FBF5F39F42E2D9DFF834
:107760003C90B8FBF5F3504619F8031005FB13885D
:10777000FFF7A7FFB5FBF7F3BD4207D2BBF1000F40
:1077800002D00CB1A64203D3BDE8F88F1D46E8E74E
:1077900020215046013CFFF794FFF2E7A60F0300BB
:1077A0002DE9F74F054617468846002900F030813D
:1077B00018F8011B49B92B7B002B00F029812846C2
:1077C00003B0BDE8F04FFFF763BF252940F0C0804C
:1077D000002698F800302D2B424608F1010823D0EE
:1077E000302B24D02B2B25D000242A2B02F1010191
:1077F00023D13B681A1D3A601B680A461C44137863
:107800002E2B26D101324FF00009104610F8011B33
:10781000A1F1300CBCF1090F1DD80A2303FB091399
:10782000A3F130090246F0E746F00106D1E746F041
:107830000206CEE746F00406CBE711F8013CA3F1BF
:1078400030000928DBD80A2202FB0434303C0A4607
:10785000CBE74FF0000912F8011B01F0FB0068288C
:107860009046F8D069290ED04AD8582964D006D855
:1078700025296DD098F80030002B99D19BE763291A
:1078800062D06429F6D13A68111D3960D2F800A09F
:107890008AEAEA72A2EBEA724FF0010B092A5BDC7A
:1078A000CB4538BFCB462CB1BAF1000F01DB7207D4
:1078B00000D5013CB30702D5B9F1000F04D0F007A1
:1078C00002D4002C4ED10024BAF1000F52DACAF1D2
:1078D000000A2D212846FFF7F4FE06F00302022AD3
:1078E00005D1B9F1000F02D1002C47D10024CDE918
:1078F00000464B460A2251462846FFF7F9FEB9E7F3
:1079000073294CD014D87029B4D13B681A1D3A6041
:10791000302128461C68FFF7D4FE78212846FFF75F
:10792000D0FE00220823CDE9003221461022E3E7F1
:1079300075292BD078299DD139680A1D3A60CDE987
:1079400000464B46102228E03B681A1D3A60197821
:107950002846FFF7B6FE8DE70A230BF1010BB2FBB9
:10796000F3F29BE7A345AFD220212846013CFFF765
:10797000A8FEA6E77107B0D52B21ABE7A345B6D289
:1079800030212846013CFFF79CFEADE73968CDE980
:1079900000460A1D3A604B460A220968ACE73B687C
:1079A0001A1D3A6016F00106D3F800A020D1BAF1F2
:1079B000000F03D0504606F019FF0646B44200D926
:1079C000C4B90AF1FF3A1EE028460136FFF779FEF6
:1079D0001AF806100029F7D1A642BFF44BAF002CCD
:1079E0003FF448AF20212846013CFFF76AFEF3E749
:1079F0000026EDE720212846013CFFF762FEDDE787
:107A00002846FFF75EFE1AF8011F0029F8D131E77A
:107A100003B0BDE8F08F2DE9F047B0F80690447947
:107A2000D2F800A09DF8208009FB04F4043C06462F
:107A30000AEB0300A0420F4688BFA4EB030A191DFE
:107A4000C2F800A0B1FBF9F509FB15114DB9A9EB7E
:107A50000104544528BF5446BAF1000F04D1BDE8D3
:107A6000F0873668013DF1E704317B197018224632
:107A7000B8F1000F0ED001461846AAEB040A05F033
:107A8000D9FDD145254436684C464FF0000128BF4A
:107A90005446E1E71946F0E7FFF7A3BDF8B546798C
:107AA0000146721E0546002393422D6803D300242D
:107AB000A64202D8F8BD0133F6E70F682846FFF763
:107AC000CDFD01343946F3E72DE9F843CD1C068A94
:107AD0000746FFF79DFD043E35440446B5FBF6F529
:107AE000F0B14FF48073EDB28380C680013D076032
:107AF00081464FF00008A84512D23846FFF788FDAE
:107B0000064648B163790133637108F10108C9F889
:107B1000000007608146EEE72046FFF7BFFF3446CE
:107B20002046BDE8F88301210430FFF73EBD10B5C3
:107B3000012104460430FFF743FD10F0FF0F04D18C
:107B40002046BDE81040FFF7A9BF10BD1FB5039246
:107B50000022009203AAFFF75EFF05B05DF804FB68
:107B60001FB503920122009203AAFFF754FF05B04C
:107B70005DF804FB41DF7047064B10B500241C7014
:107B8000054B1C60BFF35F8F0449054800F03EF8C9
:107B9000204610BD584800205C480020B80F030064
:107BA0005048002007B500230DF107008DF807307D
:107BB000FFF77AFCF1EE103A23F09F03E1EE103A62
:107BC000BFF35F8F094B4022C3F884219DF8070063
:107BD000FFF78EFC04F0B2FB20B1FFF7CBFF03B040
:107BE0005DF804FB20BF40BF20BFF8E700E100E0E4
:107BF000826800239360826813618268536182689F
:107C0000D3608268536082681360704701600B68BC
:107C100043604A68934204BF00234360704743684F
:107C200043B1026891680B4443605268934204BFB9
:107C3000002343607047000010B50D49A1F5947210
:107C4000914201D800200FE08B1ADB1003EBD373B5
:107C50005B1002EBC30452F83330834205D802D2E2
:107C600004F10802ECE7606810BD2146E8E700BFB8
:107C70000811030008B5FFF7DFFF024B002808BF1B
:107C8000184608BDCD0F0300054B1B68082B01BF2C
:107C9000044B1868B0FA80F0400918BF0020704704
:107CA000300100103401001008B54FF0804300226D
:107CB000C3F80C21C3F81021C3F838254FF08052C7
:107CC00003F54043D2F80414C3F82015D2F8081481
:107CD000C3F82415D2F80C14C3F82815D2F81014E0
:107CE000C3F82C15D2F81414C3F83015D2F81814B0
:107CF000C3F83415D2F81C14C3F84015D2F8201478
:107D0000C3F84415D2F82414C3F84815D2F828143F
:107D1000C3F84C15D2F82C14C3F85015D2F830140F
:107D2000C3F85415D2F83414C3F86015D2F83814D7
:107D3000C3F86415D2F83C14C3F86815D2F840149F
:107D4000C3F86C15D2F84424C3F87025FFF79CFFE4
:107D500010B1384B384A1A60FFF796FF18B1374B0D
:107D6000FB22C3F81825FFF78FFF48B13449354B84
:107D70000A681B6822F00F0203F00F0313430B6025
:107D8000FFF782FF18B1304B4FF400721A604FF0CA
:107D90008043D3F80024D20744BF6FF00102C3F838
:107DA00000242A4AD2F8883043F47003C2F888309D
:107DB000BFF34F8FBFF36F8F4FF01023D3F8002224
:107DC000002A03DBD3F80432002B2FDA204B0122E8
:107DD000C3F80425D3F80024002AFBD04FF010226A
:107DE0001221C2F80012D3F80024002AFBD04FF071
:107DF00010231222C3F80422154B1A46D3F800149C
:107E00000029FBD00021C3F80415D2F80034002B60
:107E1000FBD0BFF34F8F0D490E4BCA6802F4E062EE
:107E20001343CB60BFF34F8F00BFFDE70A4B0B4AF4
:107E30001A6008BD8C5600404881030000F00040E5
:107E4000E40E0040580200104096024000ED00E0B1
:107E500000E001400400FA05C03B00200090D00380
:107E6000074B1B5C1F2B8ABF064A4FF0A04203F052
:107E70001F03D2F80405D840C04300F0010070474A
:107E8000C614030000030050074B1B5C1F2B86BF6A
:107E900003F01F0305494FF0A041012202FA03F34A
:107EA000C1F80C35704700BFC61403000003005032
:107EB000074B1B5C1F2B86BF03F01F0305494FF0C8
:107EC000A041012202FA03F3C1F80835704700BF50
:107ED000C61403000003005008B50020FFF7E8FFB8
:107EE0000120FFF7E5FF0220FFF7E2FF0320BDE8D6
:107EF0000840FFF7DDBF08B50020FFF7C5FF0120F0
:107F0000FFF7C2FF0220FFF7BFFF0320BDE80840D4
:107F1000FFF7BABF0A4B185C1F288ABF094B4FF006
:107F2000A04300F01F00D3F804250121814021EA7D
:107F300002000A40C3F80805C3F80C25704700BFCB
:107F4000C614030000030050074B1B5C1F2B8ABFA5
:107F5000064A4FF0A04203F01F03D2F81005D840A4
:107F6000C04300F001007047C2140300000300503A
:107F70000B2809D00C2809D0182809D019280CBFC3
:107F800003204FF0FF3070470020704701207047FA
:107F900002207047014B185C704700BFC2140300F9
:107FA000C20710B504460CD54FF0A0430322C3F816
:107FB0003427C3F83827C3F83C27C3F84027FFF716
:107FC0008BFFA3070AD54FF0A0430C22C3F82C2740
:107FD000C3F83027C3F86027C3F8642710BD00003A
:107FE00038B5074C051E04F1080318BF1C4623686A
:107FF0002BB11A6822605B6828469847F7E738BDBE
:108000006848002020B9054B01225A70FFF7E8BFED
:10801000012802D1014A9070F8E7704760480020BB
:1080200020B9034B01225A70FFF7DABF704700BF37
:108030006048002038B50B4C237883B90A48636048
:10804000A3602361E36000F057F8054604F076F979
:1080500008B900F05DF801232370284638BD852556
:10806000FBE700BF604800200580020037B50B4CDD
:1080700000230DF107008DF80730FFF715FAE368CC
:10808000013BE360E56815B900F054F8A5709DF870
:108090000700FFF72DFA03B030BD00BF6048002095
:1080A000012813B509D018B103281CD002B010BDA7
:1080B0000F4B0122C3F88020F8E70E4C00230DF18E
:1080C00007008DF80730FFF7EFF923780BB9FFF7BA
:1080D000B1FFE3689DF807000133E3600123A3705B
:1080E000FFF706FAE2E700F013F8FFF7BFFFDDE75E
:1080F00000E100E060480020044A137923B901211F
:1081000010609180184670478520704774480020A1
:10811000074B1A68D2075FBFC02283F800230122F1
:108120001A604FF080430122C3F81825704700BF42
:1081300000E100E0044B01221A604FF08042D2F8C7
:108140001834DB03FBD470470C00004007B5154B17
:108150001A687AB100221A601B680093009B4FF0E6
:1081600080430122C3F808230F4B587910B95A7184
:108170001B6898470D4B1A6882B100221A601B6871
:108180000193019B4FF080430222C3F80823064B62
:108190001B68012003B05DF804EB184703B05DF8DD
:1081A00004FB00BF000100407448002004010040AF
:1081B00000F1804000F5C040002382B003600368F6
:1081C0000193019B02B0704703681F2B83BF03F02C
:1081D0001F03036001484FF0A040704700030050A8
:1081E00007B5019001A8FFF7EFFF019B00EB8300AB
:1081F000D0F8002722F44032C0F80027D0F800372A
:1082000043EA0143C0F8003703B05DF804FB000007
:10821000054B4FF0FF32072843F8202084BF1B187E
:1082200083F85820704700BF7C48002010B5174CD9
:1082300094F86A3043BB04F130033021FF22013946
:1082400011F0FF0103F8012BF9D1C8B2FFF7E0FFED
:1082500001310C29F9D1062200210D4805F0F8F969
:108260000C4BC02283F8062340221A604FF4BE70E4
:10827000FFF79EFF084B4FF00042C3F80423012391
:1082800084F86A30002010BD0820FCE77C480020FC
:10829000E048002000E100E000600040034B93F85C
:1082A0006A00003018BF0120704700BF7C480020E2
:1082B000F7B53B4E3318054693F93030002B6CDA96
:1082C0008B78C3F34003002B0BBF082400240C2041
:1082D0000820844202D1042003B0F0BD56F8247077
:1082E000013743D1701946F8242080F8304013B983
:1082F000331983F858508B785A0717D4D80737D5D5
:1083000001A80195FFF760FF019B00EB8300D0F807
:10831000003723F00203C0F800372248EA0805F0CE
:1083200007070123BB40875C3B43835488780A7866
:1083300010F0020028D0A40004F1804404F5C044E9
:108340002D02D4F8103523F44F3323F44073C4F8CE
:1083500010351204D4F8103505F47C5502F440327F
:1083600015431D43C4F810550020B5E70134B0E7AC
:1083700001A84A780195FFF727FF019B03F5E073F9
:10838000920040F82320C8E7083C344494F8605039
:1083900045EA821284F860209EE708209CE700BF2F
:1083A0007C480020E048002073B5224C2518064682
:1083B00095F93020072A19DD224492F858309B099C
:1083C000032B0FD1019001A8FFF7FEFE019AD0F810
:1083D0001035D340DB0707D402213046FFF700FFFA
:1083E00002B070BD012BF7D00321F6E7D3B2072B03
:1083F000F6D8930003F1804303F5C043D3F810058A
:1084000040F00100C3F8100502F14000800080B286
:10841000FFF7CEFE0029E3D095F9303054F8233031
:10842000002BDDD0012303FA02F2034BC3F804232F
:10843000D6E700BF7C4800200060004007B50190EF
:1084400001A8FFF7C1FE019BD0F81005D84000F04D
:10845000010003B05DF804FB2DE9F04F002489B062
:10846000CDE90244624D4FF48072012102F1804354
:1084700003F5C04390B21B68012B06D1D5F8043335
:108480000B4202D0FFF794FE0C430432B2F5907F0A
:108490004FEA4101EAD1574B1B68012B0ED14FF433
:1084A000BE70FFF785FE4FF0A04344F00044D3F8C0
:1084B00010350293504BD3F81035039314F0FF0F8F
:1084C0001AD04E4F00250126344210D0AB0003F1E4
:1084D000804303F5C043D3F81005D3F8101557F8BF
:1084E000253023B1C1F30141C0F305209847013580
:1084F000082D4FEA4606E7D1002C75DA0DF1100879
:1085000000230493C8F804304FF0FF33CDE906335D
:10851000DFF8E8A0DFF8E89000273D4619F9014BA5
:10852000631C48D0E4B2012324F0C00604F0070223
:1085300003FA02F2F00808AB191811F8083C1342CC
:1085400039D00AEB0603A40993F930305AF823B066
:10855000BBF1000F08D1032C2DD118F800C04CEA54
:10856000020C08F800C001E0032CF6D001A8019627
:10857000FFF72AFE019B11F8181C03F5E07C11425D
:1085800050F82C00C0F3014005D0022813D1032C71
:108590000BD1214604E003280DD1032C05D1022183
:1085A0003046FFF71DFE0135EDB2BBF1000F02D0E2
:1085B00021463046D8470137042FAFD1A5B14FF03F
:1085C000A0430299D3F8102503F540739142D3F8E4
:1085D000103502D10399994206D002920393049A6E
:1085E000059B0692079395E709B0BDE8F08F00BFA1
:1085F000006000407C610040000300507C48002087
:10860000DC480020014B1B68184700BFE8480020E9
:108610000E4B984237B50D4602D0002003B030BD56
:1086200000230DF107008DF80730FEF73DFF084BE2
:108630001C7914B901221D601A719DF80700FEF71C
:1086400057FF002CE9D01120E8E700BF00200040D0
:10865000E84800200220FFF75DBC00002DE9F0474C
:1086600081460D46FFF784FC0328044604D8012DFB
:1086700004D025B3022D2FD0BDE8F087194D470057
:108680003A18A918AE5C4A7852B1DFF868801648EB
:1086900042464FF40041FEF7B1FE08B988F8009059
:1086A0003B192B449A78114B1A55002EE4D0104BED
:1086B0001B68002BE0D03046BDE8F04718470A4859
:1086C000FEF7E2FE074B04EB440213449E78074B8F
:1086D0001B5DB342D0D1E8E7024B00EB40041C44E1
:1086E0006678E2E754490020144900206D490020D3
:1086F00068490020F048002002210078FFF7AEBF53
:1087000008B5094B1B7853B10020FFF7D1FB0120BE
:10871000FFF7CEFB0320BDE80840FFF7C9BBBDE86B
:108720000840FFF7D9BB00BFF1480020F8B57B4CEB
:10873000237805461BB100232370FFF7E1FF172DB7
:1087400000F28880DFE805F00C1717435465768047
:10875000888D888D959A9A9A9A9AC4C9D1D9E4E459
:10876000FFF7CEFF6E48FEF78FFE6E4B00220446E9
:108770001A702046F8BD0020FFF772FBF8B1002008
:10878000FFF796FB022D0CBF4FF4E1614FF47A61C5
:10879000644B1D704FF400404FF4FA740025E0FB69
:1087A00001454FF47A7200232046294608F07CF9EF
:1087B000002201465A48BDE8F840FEF71FBEFFF709
:1087C00063FB022D0CBFC8214FF4C871E0E7002005
:1087D000FFF746FB40B10020FFF76AFB4FF44871FA
:1087E000504B03221A70D5E7FFF74EFBC821F7E77D
:1087F0000020FFF735FB38B10020FFF759FB4FF49D
:108800007A61484B0422EDE7FFF73EFB4FF4C87155
:10881000F7E70020FFF724FB48B10020FFF748FBF3
:10882000404B05221A7041F69A110022C2E7FFF769
:108830002BFBF5E70020FFF76DFB3A4B06221A7081
:10884000002240F6CD41B5E70020FFF71DFB354B78
:1088500007221A7000248CE701202070FFF75AFBD2
:10886000EEE701202070FFF755FB00224FF4804116
:10887000A0E7FFF740FB2B4B0C22EAE72A482B4EE0
:10888000FEF702FED5F1110504461CD0D8B9012D22
:1088900013D0C8235D434FF400474FF4FA70002112
:1088A0004FF47A720023C7FB050108F0FDF8224659
:1088B00001461D48FEF7A2FD04460220FFF7E4FA38
:1088C0000123337055E70220FFF7F2FA0023F8E79F
:1088D000FFF716FF134B1222BBE7FFF711FF002033
:1088E000FFF7D2FA0F4B1322B3E7FFF709FF01207E
:1088F000FFF7CAFA0B4B1422ABE7FFF701FF00208A
:10890000FFF7C2FA0120FFF7BFFA064B1522A0E7D6
:10891000FFF7F1FA034B1D709CE700BF644900208C
:10892000344900206C490020F4480020F148002020
:10893000044B1B68DB0703D5034B1878FFF7F6BE23
:10894000704700BF604900206C490020002910B525
:1089500014BF03240024FFF71DFB1F288ABF0A4B06
:108960004FF0A04300F01F0003EB8000D0F8002779
:1089700022F44032C0F80027D0F8003743EA04431D
:10898000C0F80037002010BD00030050032801D8B4
:10899000FFF7DABA00207047044B1B6813F001039D
:1089A00001D0FFF7C3BE1846704700BF60490020E2
:1089B00038B51C4B18601C4B10F0020405461960BA
:1089C0001AD01A4B1A480E221A700F22DA7010228F
:1089D0009A7111225A72042140F26662FEF70AFA75
:1089E000044648B9FEF75AFA044628B90146114A26
:1089F0001148FEF7F1FC0446EB0711D50120FFF703
:108A0000CFFA6CB921460D4A0D48FEF7E5FC044645
:108A100030B90C4A0C480121BDE83840FEF7DCBCF7
:108A2000204638BD60490020684900205449002094
:108A3000EC140300F98602001015030031890200CE
:108A400014150300558602000C150300032813D8E3
:108A5000012A0BD1012908D100F10E02D2B200EB9C
:108A600040000C4B1A540020704700220129F6D018
:108A70004BB24BB1022901D007207047054B00EBE8
:108A8000400018444270EEE7024900EB4000084401
:108A90008270E8E754490020032802D80121FFF73B
:108AA00055BF0620704708B5012202210020FFF7BC
:108AB000CDFF08B1072810D1072202210120FFF7BE
:108AC000C5FF08B1072808D100210A220846FFF790
:108AD000BDFF10B1072808BF002008BD10B50388EE
:108AE000102B02D0112B1ED010BD1A4C2168B1B929
:108AF00001220846FFF7AAFF08B1072824D1072260
:108B000002210120FFF7A2FF08B107281CD104228F
:108B100002210020FFF79AFF08B1072814D123682B
:108B200001332360E0E70B4A1368013B1360002B1D
:108B3000DAD1FFF7B8FF0028D6D0074B1B68002B0F
:108B4000D2D0BDE810401847034B1B68002BE6D07D
:108B50009847E4E7784900207449002008B50020D0
:108B6000FFF79AFF08B1062806D10120FFF794FF0E
:108B700010B1062808BF002008BD00000D4B10B53D
:108B800018600C4629B10120FFF700FF40B1022315
:108B90002370094B1B6853B9BDE81040FFF783BF32
:108BA000FFF7F4FE08B10B23F2E72070F1E7002095
:108BB00010BD00BF744900207849002008B500F0BE
:108BC0000BFD002008BD00004FF080430122002172
:108BD000C3F81825C3F804119A60D3F80421002AB9
:108BE000FBD00C4B40F6FF72C3F808254FF48032DF
:108BF000C3F84423C3F80423074A1268D200C3F819
:108C0000402501221A60054B202283F824231022DC
:108C10005A60704700400240C43B002000E100E081
:108C20000C4B2DE9304818600B4B0C4819600C4B6D
:108C3000D0E90045D3F80425D20814EB020B45F126
:108C4000000CC0E900BC0122C9009A60C3F84015BD
:108C5000BDE830887C490020C43B0020E04900206A
:108C6000004002402DE9F8431C4C1D4E1D4F2DEDD8
:108C7000028BA0F5FA60A3600A9B60616360013912
:108C80000B9B23602046C4E9032104F0C3FD164B6F
:108C900001229A60D6E9004554EA050380468946D8
:108CA00014D0001B61EB050107F070FE08EE100AFE
:108CB000D7E90001001B61EB050107F067FE07EE35
:108CC000900AC8EE277A094BC3ED007ABDEC028BFF
:108CD000C6E90089C7E90089BDE8F8830C4A00208D
:108CE000D8490020E049002000400240D04900203F
:108CF00073B50D4B0D4ED3F804150D4BD3E900237E
:108D0000C908541843F100056846CDE9004504F050
:108D10007DFB05460FCD34460FC40FCD0FC42B6825
:108D20002360304602B070BD00400240E849002098
:108D3000E04900202DE930482DED028B204B93EDCA
:108D4000008AB5EE408AF1EE10FA82B034D01D4BA5
:108D5000D3F804151C4BD3E900451C4BD3E9002381
:108D6000C90812EB010B43F1000CBBEB04006CEBE8
:108D7000050107F00BFE07EE100AF6EE007A47EE4B
:108D8000087A17EE900A07F0A7FE001945EB0101DB
:108D9000CDE90001684604F039FB05460FCD0C4CC7
:108DA0000FC40FCD0FC420462B6840F8203902B005
:108DB000BDEC028BBDE83088FFF79AFFF7E700BFF4
:108DC000D049002000400240D8490020E04900205E
:108DD000E849002008B548B1FFF7ACFF0346054A53
:108DE0000548502105F0F8FC034808BDFFF780FF57
:108DF000F4E700BF18150300804900204DF804BDBA
:108E00000E4BD3F84021AAB10022C3F84021012221
:108E10009A600B490B4B1868D1E9002312EB000B49
:108E200043F1000C084B1B68C1E900BC13B15DF8AD
:108E300004BB18475DF804BB704700BF0040024008
:108E4000E0490020C43B00207C490020704776DFC9
:108E5000704778DF70477ADF70477CDF70477FDFCD
:108E600070478FDF7047B1DF704733DF7047FEF721
:108E70002BB808B50020FFF78FFD08B1FEF724F8E6
:108E8000FFF76CFE08B1FEF71FF8FFF7EEFF18B111
:108E9000BDE80840FEF718B808BD000013B51B4B2D
:108EA0001B783BB31A4B1B481B4C1C49C01AC0080B
:108EB000000440F00300FDF745FD237801332370E3
:108EC00001F0D2F8164B1B78ADF80630154B1B7825
:108ED00083B122789A420DD1134B14491B88144850
:108EE0000DF1060203F082F8124A13880133138051
:108EF00000232370104BD3ED007AB7EE007A77EEA3
:108F0000877AC3ED007A02B010BD00BFDB530020AA
:108F10002C2603005C260300E25300201E190300E8
:108F2000DA530020E1530020D23B0020F15300200F
:108F3000A03E0020D8530020DC5300202DE9F3414F
:108F400005780646002D69D13D4B3E4C3E493F4FCA
:108F5000E41AE408240444F003042046FDF7F2FC7C
:108F6000B38A9D4233695CD3DFF820811A78384F89
:108F700088F800205A7899783A70DA78354D42EAC4
:108F80000122204634492A80FDF7E0FC3A7898F81F
:108F900000302888314F991888424FD13049314DDF
:108FA0000A703149DFF8E8800B708B702F4B304826
:108FB0001B6800224A70DA682A701A695B69AB7014
:108FC000013203236A70ADF806300DF10602B8F8DD
:108FD000003003F00BF827492046FDF7B3FC294683
:108FE000B8F8003022480DF1060202F0FFFF2249D6
:108FF00005462046FDF7A6FCD5B920492046FDF7D9
:10900000A1FC01233B70B28A3369134413F8013C7D
:109010000D2B03D11A492046FDF794FC02B0BDE8A0
:10902000F0815A5D39462046FDF790FC013597E7FF
:1090300014492046FDF786FC0023E3E71249F8E7D0
:109040002C2603005C26030034160300661603007A
:10905000E0530020E45300209A160300DB53002065
:10906000E1530020334A0020304A0020D45300202E
:10907000A03E0020A2160300AB160300B5160300A5
:10908000EC160300C8160300DD160300E3530020AE
:10909000D23B002010B5084B084904460848C01AC6
:1090A000C008000440F00300FDF74CFC21460548D1
:1090B000BDE8104002F0D0BF2C260300D4150300F9
:1090C0005C260300904C002008B503784BB9054B93
:1090D0003B211888FFF7BBFE18B1BDE80840FDF73B
:1090E000F3BE08BDD23B002037B50546808802F0AC
:1090F00083F82B88212B54D029D8112B32D0132B55
:1091000057D0102B4BD1334B33483449C01AC008C9
:10911000000440F00300FDF715FC0720FFF73CFCBE
:1091200008B1FDF7D1FE2E4BA9882E48198002F018
:10913000DDFA08B1FDF7C8FE2B4BA9882B480022A9
:109140001A7002F0DBFC50B3FDF7BEFE27E0522B95
:1091500037D0562B01D03B2B21D11321A888FFF704
:1091600076FEF0E71B4B1C4C2149E41AE40824046A
:1091700044F003042046FDF7E5FB1E4B1E49002288
:109180001A7020462A7AFDF7E1FB154BA8884FF6A6
:10919000FF721A80194B9989884200D19A8103B0D5
:1091A00030BD002301A9A888ADF80430FFF759FEAF
:1091B000C9E70B4800231A4685210088FFF74FFEB8
:1091C000C1E7074800231A4619460088FFF74BFEFF
:1091D000B9E700BF2C2603005C2603002615030018
:1091E000D23B0020C44C0020D0530020D43B0020B0
:1091F00037150300DB53002044150300904C00207A
:109200000D4B4A881B889A4214D10A8840F677236E
:109210009A420FD18B88094A09480A49033B9BB2FD
:109220001380094A801AC00800041A4640F003005F
:10923000FDF795BB704700BFD23B0020D03B00201C
:109240005C260300E21503002C260300043808B551
:109250000A2837D8DFE800F00A36361636360636E2
:1092600036362000BDE80840FFF703BE164B132139
:109270001888FFF7ECFD30F0080323D0BDE8084064
:10928000FDF722BE104B1A884FF6FF739A4219D190
:109290000E4801F0D1FDEEE70D4882894FF6FF73CD
:1092A0009A420FD002F0AFFF05280BD1094B0A48B4
:1092B0000A49C01AC008000440F00300BDE8084095
:1092C000FDF740BB08BD00BFD23B0020384A00205C
:1092D000904C00202C2603005C2603008915030017
:1092E00008B548B103280BD10220FFF755FB38B170
:1092F000BDE80840FDF7E8BDBDE80840FFF7B9BD8F
:1093000008BDFDF7E1BDFDF7DFBD000037B5FFF794
:10931000EFFC174D174B184C2860E41A0020FFF79C
:1093200059FDE408240444F003040246134920468E
:10933000FDF70CFB0120FFF74DFD114902462046C9
:10934000FDF704FB2A68D2E904310091204601337D
:10935000D2680C49FDF70DFB2A680B49136800938E
:10936000D2E901322046FDF704FB03B030BD00BF57
:10937000D45300202C2603005C260300CE180300E3
:10938000E6180300FC1803000D19030037B50B782D
:109390000D46042B00F2CD80DFE813F0050022001B
:1093A0002F003600C400644B64486549C01AC008E9
:1093B000000440F00300FDF7C5FA2A1D69886148E2
:1093C00002F029FF08B1FDF77FFD5E4802F01BFFA8
:1093D000002800F0AE8003B0BDE83040FDF774BD5A
:1093E0005648554B5849C01AC008000440F00300C5
:1093F00003B0BDE83040FDF7A5BA50484E4B534985
:10940000C01AC0080004F1E74B4B4C4C5049E41A19
:10941000E408240444F003042046FDF793FAAB7BF0
:109420006A7AA97A642013FB00F31B0A07EE903ACC
:10943000484BA888F8EE677AC3ED007A2B7ACDE91D
:109440000021EA79A979FFF70DFCFFF75FFF424998
:109450002046FDF777FA41492046FDF773FA2A7B4B
:109460003F4B404953F822202046FDF76FFAEA7936
:10947000002A4DD13C492046FDF764FAAA793B4BBE
:109480003B4953F822202046FDF760FAAA88002ABB
:1094900043D138492046FDF755FA20463649FDF7B5
:1094A00051FA2A7A35492046FDF750FA6A7A34494A
:1094B0002046FDF74BFAAA7A32492046FDF746FAD4
:1094C000AA7B31492046FDF741FA20462F49FDF796
:1094D00039FA2A7C2E492046C2F3C002FDF736FA3B
:1094E0002A7C2C492046C2F38002FDF72FFA2A7C01
:1094F00029492046C2F34002FDF728FA2A7C274971
:1095000002F00102204603B0BDE83040FDF71EBA6C
:1095100023492046FDF71AFAB0E722492046FDF715
:1095200015FABAE70548044B1F49C01AC0080004E1
:109530005CE703B030BD00BF2C2603005C260300AF
:10954000F1160300904C00201C170300471703007E
:109550005C170300DC53002073170300831703001C
:10956000B41503008B1703009D17030000160300BA
:10957000C6170300D81703000118030009180300D9
:1095800017180300251803003318030051180300AF
:1095900063180300781803008D180300A218030055
:1095A000B4170300EF170300B718030008B5084904
:1095B000084801F06BFF08B1FDF786FCF72105486C
:1095C00001F07CFF18B1BDE80840FDF77DBC08BD87
:1095D00001920200A04C002000B54FF40041AFB052
:1095E0000020FCF7EBFF08B1FDF76EFCFCF71CFF59
:1095F000FDF7C2FE08B1FDF767FC0121754A764808
:10960000FDF7EAFE75490320FFF7D2F908B1FDF72F
:109610005BFC03A90020FFF7B1FA08B1FDF754FC89
:109620006F4802F031FA08B1FDF74EFCFFF7CCFAB3
:1096300004216C48FFF7F4FAFEF79EFA08B1FDF733
:1096400043FC02F03DFE08B1FDF73EFC002303A9F8
:109650000120039302F0C2FE08B1FDF735FC03A818
:1096600002F090FF08B1FDF72FFC11235E488DF842
:10967000083005F0BBF85C4982B202A8FFF7EDFBA9
:1096800008B1FDF721FC40F24130FFF7E2FB08B1E1
:10969000FDF71AFC0021082203A803F0D9FF4FF0C0
:1096A00008114FF0167303A8CDE90313FFF7D3FB9E
:1096B00008B1FDF709FCFFF779FF0023CDE903337B
:1096C00002A94A4B4A48029301F0FEFF08B1FDF798
:1096D000FBFB042200210DEB020003F0B9FF454B18
:1096E0004548019301A902F00BFC08B1FDF7ECFB22
:1096F0000021082203A803F0ABFF404B039303A90A
:109700003F4B4048049302F0E9FC08B1FDF7DCFB55
:10971000AC22002103A803F09BFF02238DF80C303C
:10972000ADF85830384B17934FF4C0620123ADF8B1
:109730000E208DF8883040220023CDE9252303A98F
:10974000324B33482C9301F0BAF908B1FDF7BCFB5A
:1097500001212F4801F0B0F91C22002103A803F0D9
:1097600077FF00234FF42032CDE90332ADF81A30F1
:109770004FF470228DF81C30264B0592089303227B
:10978000254B8DF8182003A8099301F071FC08B14E
:10979000FDF79AFB214B22482249C01AC008000459
:1097A00040F00300FDF7CEF8002252211E48FDF7DD
:1097B00025FE08B1FDF788FB0321154801F0F6F9F5
:1097C00008B1FDF781FBFCF753FF0028FBD1FEF742
:1097D000E9F9F8E79D8E0200C41903004D920200DA
:1097E000959002004D8E02005E1503006F8E020000
:1097F000C44C00203D8F0200A03E00208D9302004B
:1098000007930200904C0020C83B0020E192020028
:10981000384A0020C9900200039302002C2603005E
:109820005C2603006B150300D04C002008B50A200D
:1098300003F022FA0248BDE8084003F029BA00BF4D
:10984000EE530020064B00221A80064B1A88064B66
:10985000110A197005495A7002200870704700BF3C
:109860001A540020D8530020F1530020DA5300206E
:10987000F0B50F480F4A037813700F4A0F4E118846
:10988000002425463746AB420ADC04B11180128819
:10989000110AF954991C0133DBB20170FA54F0BD7E
:1098A00016F8014B214489B201350124EBE700BFD2
:1098B000DA530020ED5300201A540020F153002009
:1098C000F7B5FFF715FA1C491C4B1D4A18600B78B9
:1098D0008468D4545C1CE4B2466816559D1CEDB2F5
:1098E0000D7006685655DC1CE4B2164D0C700678F7
:1098F0002F78B742144E1CBF00273760D6ED007A90
:1099000007682F70FCEEE77A04330B7017EE903A7D
:1099100013550E4A0E4CCDED017AA41A036800933C
:10992000E4082404D0E901320A4944F00300FDF7B9
:109930002CF803B0F0BD00BFDA530020E85300203C
:10994000F1530020EC530020DC5300202C260300B0
:109950005C260300C819030010B50549054A0B78B9
:10996000040AD4549C1C0133DBB20C70D05410BDDB
:10997000DA530020F153002030B50C4C0C4A237808
:1099800010EE101AC1F30760D054581CC0B2C1F3D6
:1099900007451554981CC0B2C1F307251554181D6E
:1099A0000333DBB22070D15430BD00BFDA53002046
:1099B000F153002073B5FFF745FFFFF781FFFFF775
:1099C00035FF1E4B1E4893F9006093F9015093F93F
:1099D00002401C4B1A88E443511CED4304EB440441
:1099E0001980F643184B194905EB450504EB84141F
:1099F00006EB460605EB8515A400A4B2C01A06EBDB
:109A00008616AD00ADB223B2B600C008B6B201935F
:109A100000042BB2009340F0030033B2FCF7B5FF13
:109A20003046FFF799FF2846FFF796FF2046FFF7DD
:109A300093FF02B0BDE87040FFF71ABFEE5300205D
:109A40005C2603001C5400202C260300DC190300B4
:109A500008B5FFF7F7FEFFF733FF00F0BDFC184B2A
:109A600093ED000AFFF788FF164B93ED000AFFF70E
:109A700083FF154B93ED000AFFF77EFF134B93ED29
:109A8000000AFFF779FF124B93ED000AFFF774FF0E
:109A9000104B93ED000AFFF76FFF0F4B93ED000A99
:109AA000FFF76AFF0D4B93ED000AFFF765FF0C4BC4
:109AB00093ED000AFFF760FFBDE80840FFF7D8BE4E
:109AC0005C54002034540020505400204C5400209A
:109AD000285400206454002040540020605400208A
:109AE0002C540020024A00231370024A138070474E
:109AF000DB530020D853002008B51C2003F019F9CF
:109B0000602003F022F9BDE8084003F022B900000C
:109B100008B5FFF7F1FF0248BDE8084003F01DB9A2
:109B20001454002037B5FFF78DFE1D4CFFF7C8FE1B
:109B30001C4B1D49E41AE408240444F003042046A5
:109B4000FCF700FFFFF7E4FF184B1A88511C19803F
:109B50001749B1F90400B1F9003040420190B1F960
:109B6000021049420091204612495B42FCF70DFF6A
:109B7000114B5D8818889C886D424042ADB280B21E
:109B80006442FFF7E9FEA4B22846FFF7E5FE20464F
:109B9000FFF7E2FE03B0BDE83040FFF769BE00BF4B
:109BA0005C2603002C260300971A03001C54002097
:109BB00014540020A61A03000E54002008B580207B
:109BC00003F078F803F082F8BDE8084003F089B8A4
:109BD00008B5FFF7F3FF044803F087F80348BDE832
:109BE000084003F094B800BF0E5400200854002031
:109BF00073B5FFF727FE1C4C1C4DFFF761FE1C4B95
:109C00001C49E41AE408240444F003042046FCF749
:109C100099FEFFF7DDFF184B1A88511C1980B5F922
:109C20000410B5F9003049420191B5F902104942DA
:109C30005B42009120461149FCF7A7FE6E882888F8
:109C4000AC8876424042B6B280B26442FFF784FEEE
:109C5000A4B23046FFF780FE2046FFF77DFE02B03B
:109C6000BDE87040FFF704BE5C2603000E540020E0
:109C70002C260300071A03001C540020DC190300E3
:109C800073B5FFF7DFFD1C4C1C4DFFF719FE1C4B95
:109C90001C49E41AE408240444F003042046FCF7B9
:109CA00051FEFFF795FF184B1A88511C1980B5F922
:109CB0000410B5F9003049420191B5F9021049424A
:109CC0005B42009120461149FCF75FFE6E882888B0
:109CD000AC8876424042B6B280B26442FFF73CFEA6
:109CE000A4B23046FFF738FE2046FFF735FE02B03B
:109CF000BDE87040FFF7BCBD5C260300085400209F
:109D00002C2603005D1A03001C5400202E1A0300A9
:109D10002DE9F347FFF796FD314C324D324EFFF7F8
:109D2000CFFD324B3249E41AE408240444F0030422
:109D30002046FCF707FEFFF74BFF2E4B1A88511CFD
:109D40001980B5F90410B5F9003049420191B5F90F
:109D500002104942009120465B422749FCF715FE5C
:109D6000B6F90410B6F90230B6F9002049425B4258
:109D70005242009120462149FCF7FBFDB5F802A0B4
:109D80002888B5F80490B6F800807788B488CAF1BE
:109D9000000A40421FFA8AFA80B2C9F10009FFF7AF
:109DA000DBFD1FFA89F95046C8F10008FFF7D4FD22
:109DB0001FFA88F848467F42FFF7CEFDBFB2404603
:109DC0006442FFF7C9FDA4B23846FFF7C5FD20463F
:109DD000FFF7C2FD02B0BDE8F047FFF749BD00BF85
:109DE0005C2603000E540020085400202C2603009B
:109DF000591A03001C5400206D1A03003A1A03007C
:109E00002DE9F04F85B0FFF71DFD464C464D474FFD
:109E1000474EFFF755FD474B4749E41AE408240431
:109E200044F003042046FCF78DFDFFF7D1FEFFF759
:109E30006FFE424B1A88511C1980B5F90410B5F910
:109E4000003049420191B5F9021049420091204683
:109E50005B423B49FCF799FDB7F90410B7F90230B2
:109E6000B7F900204942009120465B4252423549F1
:109E7000FCF77FFDB6F90410B6F90230B6F9002000
:109E800049420091204630495B425242FCF771FD45
:109E90006B88BA882888B5F804B0B7F800A0B7F87E
:109EA0000290B6F800807788B4885B425242404204
:109EB00092B29BB280B202920393FFF74DFD039BD7
:109EC000CBF1000B18461FFA8BFBCAF1000AFFF713
:109ED00043FD1FFA8AFA5846C9F10009FFF73CFD15
:109EE0001FFA89F95046FFF737FD4846FFF734FD62
:109EF000029AC8F1000810461FFA88F87F42FFF75F
:109F00002BFDBFB240466442FFF726FDA4B238469F
:109F1000FFF722FD2046FFF71FFD05B0BDE8F04F1B
:109F2000FFF7A6BC5C2603000E5400200854002056
:109F3000145400202C260300161A03001C54002081
:109F40006D1A03003A1A0300B11A03002DE9F04F0D
:109F500085B0FFF777FCFFF7B3FCFFF739FEFFF79B
:109F6000D7FDFFF763FC3C49DFF8F8C0B1F800B05B
:109F7000B1F802A0B1F804903849BCF80220B1F859
:109F800000804F888E883649BCF8043091F9020071
:109F900091F9005091F90140C04300EB400000EB03
:109FA00080108100BCF8000052425B42404289B2FE
:109FB0009BB292B280B2019102930392FFF7CCFC64
:109FC000039A1046FFF7C8FC029BCBF1000B184622
:109FD0001FFA8BFBCAF1000AFFF7BEFC1FFA8AFAD0
:109FE0005846C9F10009FFF7B7FC1FFA89F9504636
:109FF000C8F10008ED43FFF7AFFC1FFA88F84846A8
:10A000007F4205EB4505E443FFF7A6FCBFB240469F
:10A01000764205EB851504EB4404FFF79DFCB6B2D0
:10A020003846AD0004EB8414FFF796FCADB2304621
:10A03000A400FFF791FCA4B22846FFF78DFC204650
:10A04000FFF78AFC01990846FFF786FC05B0BDE8DA
:10A05000F04FFFF70DBC00BF08540020145400203F
:10A06000EE5300200E54002008B5244B1B78023B11
:10A07000102B36D8DFE803F009350D1119151D290D
:10A0800035353535353535212500BDE80840FFF734
:10A0900091BCBDE80840FFF7ABBDBDE80840FFF745
:10A0A000EFBDBDE80840FFF733BEBDE80840FFF74D
:10A0B00039BDBDE80840FFF7A3BEBDE80840FFF783
:10A0C000C7BCBDE80840FFF741BFFFF70BFD0C48D8
:10A0D0000C4B0D49C01AC008000440F00300FCF707
:10A0E00031FC084B06480949C01AC008000440F07A
:10A0F0000300BDE80840FCF725BC00BFE353002087
:10A100005C2603002C260300D11A0300E11A030089
:10A1100008B507EE900AF8EEE77A2DED048B17EEFE
:10A12000900A08EE902A08EE103A09EE101A06F08E
:10A13000A3F857A3D3E9002306F0F6F800225A4B00
:10A1400006F01CFA06F002FBF8EEC97A574B1860CD
:10A1500017EE900A06F090F84DA3D3E9002306F01D
:10A16000E3F80022504B06F009FA06F0EFFAF8EE99
:10A17000E87A4F4B186017EE900A06F07DF844A37A
:10A18000D3E9002306F0D0F80022474B06F0F6F999
:10A1900006F0DCFAF8EEC87A9FED468A464B67EE89
:10A1A000887A186017EE900A06F066F83AA3D3E9A9
:10A1B000002306F0B9F806F0C9FA404B1860BDF963
:10A1C000183007EE903AF8EEE77A67EE887A17EEE5
:10A1D000900A06F051F830A3D3E9002306F0A4F862
:10A1E00006F0B4FA364B1860BDF91C3007EE903A11
:10A1F000F8EEE77A67EE887A17EE900A06F03CF8F8
:10A2000025A3D3E9002306F08FF806F09FFA2D4B23
:10A210001860BDF9200007EE900AF8EEE77A17EE15
:10A22000900A06F029F81EA3D3E9002306F07CF873
:10A2300006F08CFA244B1860BDF9240007EE900A52
:10A24000F8EEE77A17EE900A06F016F814A3D3E9B1
:10A25000002306F069F806F079FA1C4B1860BDF986
:10A26000280007EE900AF8EEE77A17EE900A06F05B
:10A2700003F80BA3D3E9002306F056F806F066FABC
:10A28000134B1860BDEC048B08BD00BFAFF300801A
:10A29000068195438B6CE73FAF62B0A4154DF23E4B
:10A2A0008FC2F5285C8FE23F00408F405C54002055
:10A2B0003454002000008C42505400204C540020A4
:10A2C00028540020645400202054002038540020DA
:10A2D0005854002030B5344B344DD3ED006AD5EDE1
:10A2E000007A3348334B344A93ED007A334B344C85
:10A2F00092ED006A3349F4EEE67AD0ED007AF1EEA1
:10A3000010FAF4EEC77AD3ED007A48BFC5ED006AC3
:10A31000F1EE10FAB4EEE76A94ED006A2A4B48BFFA
:10A3200080ED007AF1EE10FAF4EEC66A91ED006A63
:10A3300048BFC2ED007AF1EE10FAB4EEC67A93EDA2
:10A34000006A48BFC4ED006AD5ED005AF1EE10FA7C
:10A35000F4EEC67A94ED006A1C4C48BF81ED007A99
:10A3600075EE865AB6EE006A45EEC66AD1ED005A21
:10A37000C4ED006AD0ED006A154976EEA56AF1EEEB
:10A3800010FA06EEC67A48BFC3ED007AD3ED006A34
:10A3900081ED007A92ED007A0E4B37EE267A47EE89
:10A3A000467AC3ED007A30BD20540020545400207A
:10A3B00044540020385400203054002058540020C9
:10A3C000245400203C5400204854002040540020D5
:10A3D000605400202C5400207FB5FFF7F9FBFFF7F5
:10A3E00097FB104A104BB2F904100491B2F9021015
:10A3F0000391B2F900200292B3F904200192B3F95B
:10A4000002200A480092B0F90420B0F90210B3F912
:10A410000030B0F90000FFF77BFE07B05DF804EBF9
:10A42000FFF758BF14540020085400200E54002099
:10A430000369C1688B429DBF8268D21802F1FF3266
:10A4400003F1FF3394BF501A581A70472DE9F041B9
:10A45000D0E9027405463E1B406896422044884677
:10A46000144404D903F0E6F8EC60BDE8F08132460C
:10A47000E41B03F0DFF8224608EB06016868F1E709
:10A480002DE9F843C5680646894617464FF000088F
:10A490003469B3687068A54228BFE418013C621BA8
:10A4A0005C1BBC4228BF3C46944228BF1446494628
:10A4B0002844224603F0BEF8B3682544AB4208BFE7
:10A4C00000253F1BA044A144F560E1D14046BDE812
:10A4D000F883000010B5114C114AA2610223C4E9AF
:10A4E0000433104BE361A2644FF400730E4A2362FD
:10A4F000E264002310220D49A362E01D6362E3625F
:10A50000A3656365E365226503F0F4FB0849204613
:10A5100003F0F0FB2023A37110BD00BF685400209E
:10A52000F31A0300004D0020F04C0020FC1A030039
:10A53000001B0300F8B5184C182300FB033503FB80
:10A5400000402544C46A012C0F46164611D024B1A0
:10A55000022C1BD000242046F8BD2846FFF768FFD8
:10A56000B042F8D3324639462846FFF76FFF3446EB
:10A57000F1E72846FFF75CFF8642344628BF0446D1
:10A58000224639462846FFF761FFE4E72846BDE842
:10A59000F840FFF775BF00BF68540020FFF79ABF6F
:10A5A0006DDF704779DF70477DDF704764DF70478C
:10A5B0002DE9F04F85B000250E9CBDF83CB02788F2
:10A5C0000191804691469A462E46B8F80020B24244
:10A5D0000CDC3DB12288013AD21B92B2FF2A3BD853
:10A5E0000AF80720002005B0BDE8F08FD8F8042055
:10A5F00052F82600039000220DF10B0103A8FFF78B
:10A60000D5FF0028EFD19DF80B204A4522D12288A2
:10A61000002D14BF0020022002EB0901014459451E
:10A620001ADC45B9013292B2019B22800AF802304D
:10A6300022880132228022880DF10B01524403A8A6
:10A64000FFF7B4FF0028CED121889DF80B200A44E3
:10A65000228001250136B8E70C20C4E72DE9F3413B
:10A66000089CBDF824501746CDE900450222064655
:10A670009846FFF79DFF50B94346102239463046B1
:10A68000CDE9084502B0BDE8F041FFF791BF02B047
:10A69000BDE8F0812DE9F04F00231688138090F873
:10A6A0002D3085B007460D46144653B3082E01D809
:10A6B0000C2027E102A8FFF773FF002840F0228159
:10A6C00023880822EA54238801339BB21B2223806B
:10A6D000EA542088013080B2208006220DF1090161
:10A6E000284402F0A7FF23889DF8082006339BB278
:10A6F00012F0FE0218BF01222380EA54238801339E
:10A700002380BB78FBB123880433B342D0D802A89E
:10A71000FFF748FF002840F0F58023880322EA5421
:10A72000238801339BB219222380EA542388BDF881
:10A73000082001339BB2E9182380EA54120A4A70B8
:10A74000238802332380FA789AB12388D91CB14236
:10A75000AED80221E954238801339BB20121238022
:10A76000E95423880B449BB22380EA5423880B448A
:10A7700023807A68AAB12388D91CB14298D80221D3
:10A7800092F90020E954238801339BB20A212380E7
:10A79000E954238801339BB22380EA542388013390
:10A7A00023803B89002B40F0A1803B8A5BB1CDE93F
:10A7B00000462B460722032107F11000FFF74EFF4A
:10A7C000002840F09F803B8B5BB1CDE900462B46D3
:10A7D0001522142107F11800FFF740FF002840F070
:10A7E00091803A6A002A40F09080D7F82480B8F12E
:10A7F000000F30D0B8F804302188981C8A1C02441D
:10A80000B2423FF655AFFE283FF652AF03336B54CA
:10A81000238801339BB2FF222380EA54238801332B
:10A820009BB22380B8F80020EA54E918120A4A7053
:10A830002088023080B22080B8F804205AB1D8F8BD
:10A84000081000296BD0284402F0F4FE2388B8F8E1
:10A8500004201344238097F82C30002B40F09A807A
:10A86000387800284ED03B88012B58D0228802F13E
:10A87000020CB4453FF61CAF012805D17B780233AA
:10A8800013449E42FFF414AF023EB61AB6B202A9B8
:10A8900005EB0C00ADF80860FFF786FE90BB397839
:10A8A000BDF80820022900F0BA807B78934202D3D9
:10A8B000B24240F2B280012940F0B3809BB29E4286
:10A8C000C0F0AF80ADF808300821BDF80830FE2B8D
:10A8D0003FF6EEAE22880133AB542288013292B2A9
:10A8E0002280A9542288134423800BE0CDE900463E
:10A8F0002B460622022107F10800FFF7AFFE0028D1
:10A900003FF453AF05B0BDE8F08FB4F800C00CF1D0
:10A910000603B3423FF6CCAE1188052901D80720C3
:10A92000F0E76FF4486E01EB0E039BB24FF27D3EF1
:10A930007345F4D95388052BF1D96FF44860181882
:10A9400080B27045EBD94FF6FF70814203D083424D
:10A9500001D09942E3D8052305F80C302388013350
:10A960009BB212212380E954238801339BB22380B8
:10A970001188E954E818090A4170238802339BB210
:10A9800023805288EA54E918120A4A702388023355
:10A9900023802AE7BB6A002BC1D04FF000094FF09B
:10A9A0000C0A4FF0160B97F82C305FFA89F293429D
:10A9B0007FF656AFB96A0AFB02F201EB0208B8F85B
:10A9C0000430981CFE283FF673AE208803332B54C6
:10A9D000238801339BB2238005F803B02388013319
:10A9E0009BB223808A5AEA54E918120A4A702088D6
:10A9F000023080B22080B8F804205AB1D8F808108C
:10AA000000298CD0284402F015FE2388B8F80420D1
:10AA10001344238009F10109C5E7092155E7B24232
:10AA2000FBD9ADF808604FE770B5C0B14AB11688E0
:10AA30000024B44203D305196D789D4208D0A14289
:10AA400001D800200BE0055D01352C44A4B2F0E7ED
:10AA5000A142F6D9A31C1380005D013880B270BDFD
:10AA600013B50023ADF8063013460DF10602044677
:10AA7000FFF7DAFF10B1BDF80600204402B010BDA8
:10AA800072DF704773DF704774DF704738B501229B
:10AA900004460D46B0F83812D0F83402FFF7E0FF54
:10AAA00000B1057004F13C0204F50D7104F154008D
:10AAB000BDE83840FFF7E4BF80F830107047F8B5C4
:10AAC00004460F4600296DD000286BD091F87A30EB
:10AAD0001BB191F89830002B66D14FF0000C84F830
:10AAE00002C007F178060FCE251D0FC50FCE0FC58A
:10AAF00096E8070085E8070084F830C0D7F8A4304E
:10AB00006363D7F8A830A3634FF6FF7504F50D73A0
:10AB1000C4F84432A4F848520722614604F24A209D
:10AB200002F096FD23780BB984F8545094F8243041
:10AB3000002B14BFEE231F2304F15501C4F8341277
:10AB4000A4F8383204F50E723846FFF7A3FD40BB77
:10AB500094F82430002B14BFEE231F2304F243117A
:10AB6000C4F83C12A4F8403204F5107207F13C001E
:10AB7000FFF790FDA8B9A369A4F848304FF480739B
:10AB80000125A4F8503063692064014684F83C50E4
:10AB9000636404F13C0204F15400FFF771FF00B953
:10ABA0002570F8BD0E20FCE70720FAE7F8B5077816
:10ABB00004460D46002F00F0078100F24A26A170DE
:10ABC00007220021304602F043FDE38813B1A37849
:10ABD000012B04D0E3794BB1A378022B06D1636B30
:10ABE0009BB1012284F8512208209847324604F58F
:10ABF000147112F8013F5BB98A42FAD16A1E032A26
:10AC000052D8DFE802F0070D111484F85132EDE755
:10AC10003B46F3E7A2791AB194F8242002B95BB954
:10AC2000E2790AB1002B41D1237A002B40D1637A1B
:10AC3000002B0CBF00250425636BA570002B39D0B9
:10AC4000033D012D36D86279A2B394F852228ABB13
:10AC500084F85422012284F853220720984704F1F3
:10AC60003C0518220021284602F0F2FCE26A01238A
:10AC7000511E994284F83C3001D9042A1ED1D3B226
:10AC800094F8242084F851301AB1CFB1A36A84F823
:10AC90005230A178002384F8503004291FD8DFE80F
:10ACA00001F07B1126395D000025C5E70225C3E7C9
:10ACB0000325C1E7002384F85332D0E70027DFE7FC
:10ACC0000123E4E7C4F84432C4E9106302230122FB
:10ACD00084F83C30802384F83120A4F84830A378ED
:10ACE000002B5CD1636B002B6AD1002067E002234C
:10ACF000002A84F8313014BF0723032384F83C3042
:10AD00002369A4F848300023C4F84432E368266479
:10AD10006364E4E763696364A369A4F8483012B12B
:10AD2000062384F83C306379B3B194F852329BB96E
:10AD300094F8543283B1022384F850300421204621
:10AD4000FFF7A4FE0028CAD1052384F8313004F5AA
:10AD50000D73C4F84432C2E70323F6E7E369636482
:10AD6000236AA4F8483012B1062384F83C30637992
:10AD700083B194F852326BB994F8543253B1022330
:10AD800084F8503004212046FFF780FE0028A6D129
:10AD90000623DAE70423D8E784F831309FE72A4610
:10ADA000D4F8441204F15400FFF76AFE38B994F85D
:10ADB000301094F85400FFF765FE002892D0F8BDDB
:10ADC00094F83100984790E70820F8E710B5038819
:10ADD000112B0C460AD0262B1FD0102B05D1C37B7C
:10ADE000012B02D18388A1F8483210BD002381F8DD
:10ADF00052328288B1F848329A42F6D10B79002B50
:10AE0000F3D101212046FFF7D1FE0028EDD0A36B3E
:10AE1000002BEAD0BDE810401847037A013B012B14
:10AE2000E3D8897805230131B1FBF3F303EB830306
:10AE3000C91AC9B2E6E7704738B5044690F854001D
:10AE4000FFF722FE012384F85232002384F85432A3
:10AE500084F8503006212046FFF718FE054638B921
:10AE6000A1782046FFF7A2FE10B1A36B03B198476B
:10AE7000284638BD75DF704776DF70477ADF704748
:10AE80007BDF7047034B1A8882420CBF18460020B4
:10AE9000704700BF1C4F0020024B9B6903B118474D
:10AEA000704700BF004F002073B586B23046FFF7F1
:10AEB000E9FF044670B1164D027A2B7B9A420BD201
:10AEC00000F10A013046FFF7D5FFE8B1112801D0A3
:10AED000FFF7E2FF02B070BD002303722B7C43B189
:10AEE0003B213046FFF7C8FF30F0080301D0FFF7E1
:10AEF000D3FF6B69002BEDD000228DF80420ADF854
:10AF0000066001A89847E5E7237A01332372E1E759
:10AF1000004F002013B50B46497A0F4C024669B921
:10AF2000D4E901101C7A002C18BF01465868FCF7C0
:10AF300065FA08B1FFF7B0FF02B010BD0021197229
:10AF40006369002BF8D00121ADF806008DF80410DC
:10AF500001A89847F0E700BF004F00204B88028807
:10AF60009A4213D842889A4210D380888A8840F245
:10AF7000F313984294BF031AC31A934206D800F2FF
:10AF8000F310904234BF002001207047002070472A
:10AF900070B50388112B014648D002D8102B1ED063
:10AFA00070BD122B52D0502BFAD12F4BC288DB89A7
:10AFB0009A42F5D1038A022BF2D186883046FFF7F8
:10AFC00061FF05460028EBD001F1120000F06BF99B
:10AFD00030BB6868FCF758FA0028E1D009E0C37B71
:10AFE000012BDDD14FF6FF70FFF74CFF054620B96E
:10AFF0000420BDE87040FFF74FBF8E881B4A0680D3
:10B00000002303721368C5F80A300A30536843609E
:10B010001031FFF7A3FF144B6872DB89002BBFD1FF
:10B0200029463046BDE87040FFF774BF8088FFF7BF
:10B0300029FF04460028B3D04068FCF725FA08B180
:10B04000FFF72AFF4FF6FF732380A9E78688304673
:10B05000FFF718FF05460028A2D008310A30FFF795
:10B060007DFF6872DCE700BF004F0020304F0020FA
:10B07000F8B5064648B305460FCD154F3C460FC4FC
:10B0800095E8070084E807003068124C3C60B0B1D6
:10B09000FFF7F4FEC0B93268136823605368636039
:10B0A0000D480E4A4FF6FF7303800D4B40F8043FE6
:10B0B0000021FCF791F9002818BF032004E0204686
:10B0C000FFF7DEFE0028EBD0F8BD0E20FCE700BF46
:10B0D000004F0020304F00201C4F0020A9AE02007E
:10B0E000384F002073B50191019C06466CB10025D4
:10B0F0002C46294601A8FCF724FA18B106EB4403B4
:10B1000001349D800135142DF3D13046346002B0F6
:10B1100070BD00002DE9F04703888488112B8CB0A6
:10B1200006463CD01A2B3FD0102B17D1274DAB68C9
:10B13000DB43009369686846FCF72CFA009901A884
:10B14000FFF7D0FF0DF108094FF00008019B98456B
:10B1500007D3132C13D90420FBF7B6FE0CB0BDE8BF
:10B16000F08739F802AB00270137514605EB87001D
:10B17000FCF7DDF91D2FF7D108F10108E6E72146BC
:10B180001348FCF7CBF921461248FCF7C7F9F37BCB
:10B19000012BE3D010482146FCF7C0F9DEE70C484C
:10B1A0002146FCF7C4F9D9E7057A0C482D09012D91
:10B1B000214606D9FCF7B2F9022D21460848F0D005
:10B1C000EAE7FCF7B4F921460548EAE7584F0020C2
:10B1D000604F00205C4F0020644F0020684F00202B
:10B1E0006C4F00201328014602D80248FCF7A9B989
:10B1F000002070475C4F002010B50446FFF7F2FFB7
:10B2000038B121460348FCF79CF9002814BF0220FE
:10B21000012010BD644F002010B50446FFF7E2FF87
:10B22000002814BF2046142010BD70B505461646F0
:10B230000AB90E2070BD002313600028F9D00368FE
:10B24000002BF6D0C38813F003040FD10846FFF794
:10B25000E3FFC0B214280BD02B7983420AD9EB88C4
:10B260002A6800FB032333602046E3E70720E1E779
:10B270000520DFE70420DDE7AADF7047002301385F
:10B280000B70042806D8DFE800F00306080A0C005B
:10B2900011230B7070472123FBE73123F9E71223B9
:10B2A000F7E72223F5E7007800F001007047F0B5DA
:10B2B0008B7891B0002B0C4608BF01238DF80E301F
:10B2C00005460B88ADF80C3000211646684603226F
:10B2D00002F0BEF96946607CFFF7D0FF0DF1010175
:10B2E000A07CFFF7CBFF9DF80230E27B62F3C30343
:10B2F000227C62F30413227B62F30003227D002A86
:10B3000014BF0222012262F3420300211C2209A879
:10B310008DF8023002F09CF9637B13F0300F15D0EA
:10B3200002AF03220021384602F092F90DF1090123
:10B33000E07CFFF7A3FF11238DF808309DF80A3059
:10B340000E97012262F342038DF80A30637B8DF879
:10B3500024301422A37B8DF82530002104A802F0AC
:10B3600077F903AB0493A388ADF81C30A368CDF83C
:10B3700014D01BB1E288ADF818200893A369002B04
:10B3800032D001AF03220021384602F061F9A369EF
:10B390001A88ADF82C205A88ADF82E205A680D97DF
:10B3A000187B0A923946FFF769FFA3690DF1050181
:10B3B000587BFFF763FFA2699DF80630917A61F32D
:10B3C000C3038DF80630D17A61F304138DF806308B
:10B3D000117A927B002A61F3000314BF022201223A
:10B3E00062F342038DF80630E36903B10C933346F0
:10B3F00004AA09A92846FFF73FFF11B0F0BD90DF6E
:10B400007047A5DF7047B5DF704700007FB50023A8
:10B41000ADF80810ADF80A106A4602A90646039373
:10B420000093ADF80430FFF7EAFF054600B3124B76
:10B43000124CE41AE408FCF71DFC240444F0010457
:10B44000034632460E492046FBF789FABDF8002034
:10B45000BDF8023052EA030103D00A492046FBF747
:10B460007EFABDF804201AB107492046FBF76EFAB0
:10B47000284604B070BD00BF2C26030094260300AC
:10B48000071B0300511B0300901B030088B14FF002
:10B49000F7130360FB230371074A8161F723C3801D
:10B4A0001723C0E90232036141F6FB338382002097
:10B4B00070470E20704700BFFB1BF70030B1A1F1B1
:10B4C0001703E02B04D80180002070470E2070473E
:10B4D00007207047F7B58588012D0C4617D80388DB
:10B4E000232B4FEAC50700F0B88012D8102B28D0C4
:10B4F000112B58D03C44A37A4BB1E1882846FFF782
:10B5000080FF002840F0B0800123A072E37203B0F6
:10B51000F0BD3A2B52D0552B6DD0242BEAD1CB194C
:10B52000027A5A738B69002BE4D00021ADF8041025
:10B530004DF67A21ADF80010ADF802508DF80420D8
:10B5400087E0CE190B793373C37B012B13D0022B09
:10B5500014D0F18833898B4205D22846FFF751FF7A
:10B5600070B90123F372317B737B8B42C2D22846C0
:10B57000FFF74CFFBEE70B88F380EAE74B88FBE759
:10B58000112802D10123B372EDE7FCF773FB3F4AA8
:10B590003F4B40499B1ADB081B04024643F0010065
:10B5A000FBF7D4F9DFE7CB19F722DA8017221A81EB
:10B5B00000225A8141F6FB329A819BE7CE194389DA
:10B5C000F288934228BF1346172B38BF17233381C5
:10B5D0008A6962B1F17A51B140F67721ADF8001075
:10B5E000ADF80250ADF8043069462046904700237C
:10B5F000F372B3727EE7C388CE19172BF18838BF78
:10B6000017238B4228BF0B4633810023B372284691
:10B61000FFF7F9FE60B1FCF72DFB1C4A1C4B1E49DD
:10B620009B1ADB081B04024643F00100FBF78EF96E
:10B63000F37A002B7FF45EAFA369002B3FF45AAF7F
:10B6400040F67722ADF800203289ADF80250ADF80F
:10B6500004206946204698474CE7CB19017A1B7BAA
:10B66000994228BF194682E711283FF450AFFCF7F2
:10B6700001FB064A064B07499B1ADB081B040246DE
:10B6800043F00100FBF762F941E700BF2C260300FD
:10B6900094260300E61B0300171C0300B0DF70476D
:10B6A00066DF704710B5002104464088FFF7F8FFB9
:10B6B000034608B9237210BD112801D10123F9E70F
:10B6C0006368BDE81040184760B159B10378DE2BBC
:10B6D0000AD00B684360DE2303704FF6FF7343808C
:10B6E000002070470E2070470820704728B103786B
:10B6F000DE2B04D14180002070470E2070470820C7
:10B700007047F0B5054685B00C46F1B1E8B10B784D
:10B71000DE2B1AD182884B889A4204D10B7A13B15E
:10B720000846FFF7BFFF2B88112B32D0512B0ED0CC
:10B73000012B0AD12B7A012B07D1A988628891426B
:10B7400003D123722046FFF7ADFF05B0F0BDAE88F0
:10B750006388B342F9D1AF79022FF6D1AD7B2B1FAD
:10B76000022BF2D800211022684601F071FF052D4E
:10B7700014BF4FF4C0730023694630468DF8007043
:10B78000ADF80430FFF78AFF0028DED063689847E1
:10B79000DBE76388AA889A4204BF4FF6FF73638091
:10B7A000D3E79BDF70479DDF70479EDF7047000047
:10B7B00030B50B4B19680B4B0022914201D1002090
:10B7C00009E09D788478A54206D11D880488A542A9
:10B7D00002D1054B186830BD01320433EDE700BFDC
:10B7E000D84F0020E0520020D04F002070B590F8D4
:10B7F000C63216467622A0B002FB03000D46FFF7C4
:10B80000D7FF044660B17C22002101A801F020FF8F
:10B8100001238DF80430ADF80660029501A8A04719
:10B8200020B070BD2DE9F74F8B4690F8C6120192FB
:10B830007623804601FB03000091FFF7B9FF8146A4
:10B8400070B3194E3568052D2AD8184C0099019A05
:10B850004FEAC51A04EB0A07762303FB01817A80BD
:10B86000381D1A4601F0E6FEBBF1000F14BF00239D
:10B87000022304F80A300E4BC7F87C901A68013591
:10B88000954235601D460BD10027E36F204698474F
:10B890002B6801379F4204F18004F6D30023336004
:10B8A00003B0BDE8F08F00BFDC520020DC4F002069
:10B8B000D84F002037B590F8C53290F8C6220C4614
:10B8C000C3B1013B7621DBB25143122505FB0313C3
:10B8D00003445B8A01339BB2ADF80430762303FB4B
:10B8E000020201A91389ADF806302046FFF75BFF7D
:10B8F00003B030BD762303FB0203DB88ECE70000D6
:10B9000070B54FF433720E460021044601F0A0FEDC
:10B91000114BA4F8CA6200251D60104B84F8C9526F
:10B920001B6884F8C65284F8C55223602246012160
:10B930003046FFF736FF112806D020B9012384F8DE
:10B94000C73284F8C80270BD012384F8C73284F876
:10B95000C8322846F7E700BFDC520020E052002042
:10B9600070B5194A90F8C93212680133DBB29342BC
:10B9700004460D4680F8C9324FF0000621D290F8F7
:10B98000C63280F8C5620133DBB2762113FB01F1C8
:10B9900080F8C63242180D4850F8233063502846CC
:10B9A00001211671FFF7FDFE014648B184F8C76218
:10B9B0002A462046FFF71AFF054B03221A705D80C6
:10B9C00070BD80F8C762F7E7D84F0020E052002032
:10B9D000DC4F00202DE9F34790F8C64290F8C5529D
:10B9E000762314FB03F4071905EBC50397F804C08D
:10B9F00004EB43036E1C0A336645034413D000F185
:10BA00001C0A07F1220E0CF1FF384FF01209A24474
:10BA1000ECB2A4450BD9A8451C891AD13B899C429C
:10BA200026D100231DE01B893889834205D10123DB
:10BA30000B70002002B0BDE8F0870133ADF8043090
:10BA4000ADF8060000230B70104601A9FFF7ADFE0C
:10BA5000F0E709FB05F301343EF80360B4420DD171
:10BA6000534490F8C542013480F8C5420135CFE710
:10BA70000134ADF80440ADF80630E3E7013EADF81F
:10BA80000440ADF80660DDE758B1074A00231360B3
:10BA9000064A01211170064A1360064A10601846D2
:10BAA00070470E20704700BFD84F0020D44F0020B1
:10BAB000DC520020D04F002010B5044680B10C4B62
:10BAC0001B787BB1FFF774FE70B90A4A1368052B27
:10BAD0000CD80949246841F823400133136010BD94
